{
  "contractName": "DepositContract",
  "abi": [
    {
      "inputs": [],
      "name": "totalSupply",
      "outputs": [
        {
          "internalType": "uint256",
          "name": "",
          "type": "uint256"
        }
      ],
      "stateMutability": "view",
      "type": "function",
      "constant": true
    },
    {
      "inputs": [],
      "name": "buyToken",
      "outputs": [],
      "stateMutability": "payable",
      "type": "function",
      "payable": true
    },
    {
      "inputs": [
        {
          "internalType": "uint256",
          "name": "_amount",
          "type": "uint256"
        }
      ],
      "name": "TransferToETH",
      "outputs": [],
      "stateMutability": "nonpayable",
      "type": "function"
    },
    {
      "inputs": [],
      "name": "balance",
      "outputs": [
        {
          "internalType": "uint256",
          "name": "",
          "type": "uint256"
        }
      ],
      "stateMutability": "view",
      "type": "function",
      "constant": true
    }
  ],
  "bytecode": "0x608060405234801561001057600080fd5b50610193806100206000396000f3fe60806040526004361061003f5760003560e01c806318160ddd1461004457806338a210431461006b578063a482171914610097578063b69ef8a81461009f575b600080fd5b34801561005057600080fd5b506100596100b4565b60408051918252519081900360200190f35b34801561007757600080fd5b506100956004803603602081101561008e57600080fd5b50356100ba565b005b610095610129565b3480156100ab57600080fd5b5061005961014a565b60005481565b336000908152600160205260409020548111156100d657600080fd5b336000818152600160205260408082208054859003905551600a670de0b6b3a764000085020492916108fc841502918491818181858888f19350505050158015610124573d6000803e3d6000fd5b505050565b336000908152600160205260409020600a670de0b6b3a76400003404029055565b336000908152600160205260409020549056fea26469706673582212202df242864a25cd04fa3506eab04adf19cfa100ad306ec663d2aff7fec54410d064736f6c63430007060033",
  "immutableReferences": {},
  "source": "pragma solidity >=0.4.21 <0.8.0;\r\n\r\ncontract DepositContract {\r\n    uint256 public totalSupply;\r\n    mapping(address => uint256) balances;\r\n\r\n    function buyToken() public payable {\r\n        uint256 amount = (msg.value / (10**18)) * 10;\r\n        balances[msg.sender] = amount;\r\n    }\r\n\r\n    function TransferToETH(uint256 _amount) public {\r\n        require(balances[msg.sender] >= _amount);\r\n        balances[msg.sender] -= _amount;\r\n        uint256 inEth = (_amount * (10**18)) / 10;\r\n        msg.sender.transfer(inEth);\r\n    }\r\n\r\n    function balance() public view returns (uint256) {\r\n        return uint256(balances[msg.sender]);\r\n    }\r\n}\r\n",
  "sourcePath": "C:/Users/sakac/Desktop/SmartContract/contracts/DepositContract.sol",
  "compiler": {
    "name": "solc",
    "version": "0.7.6+commit.7338295f.Emscripten.clang"
  },
  "schemaVersion": "3.3.4",
  "updatedAt": "2021-04-11T14:32:59.974Z",
  "networkType": "ethereum",
  "devdoc": {
    "kind": "dev",
    "methods": {},
    "version": 1
  },
  "userdoc": {
    "kind": "user",
    "methods": {},
    "version": 1
  }
}